:100000000C9463000C948B000C948B000C94D7061A
:100010000C94D7060C94D7060C948B000C948B0090
:100020000C948B000C948B000C948B000C948B0024
:100030000C948B000C948B000C948B000C948B0014
:100040000C948D060C948B000C945B060C94350676
:100050000C948B000C948B000C948B000C948B00F4
:100060000C948B000C948B000000000024002700EF
:100070002A0000000008000201000003040700003D
:1000800000000000000000000000230026002900FE
:1000900000000000250028002B00040404040404D0
:1000A0000404020202020202030303030303010227
:1000B00004081020408001020408102001020408F6
:1000C00010204F07D30C11241FBECFEFD8E0DEBFA6
:1000D000CDBF12E0A0E0B1E0E2EFF3E202C0059094
:1000E0000D92A431B107D9F723E0A4E1B2E001C039
:1000F0001D92AF34B207E1F710E0C2E6D0E004C0D1
:100100002197FE010E94F40FC136D107C9F70E9462
:100110006A080C94EC110C940000AF92BF92CF923D
:10012000DF92EF92FF920F931F93CF93DF936C01B7
:100130007B018B01040F151FEB015E01AE18BF0898
:10014000C017D10759F06991D601ED91FC9101904A
:10015000F081E02DC6010995892B79F7C501DF9162
:10016000CF911F910F91FF90EF90DF90CF90BF90B4
:10017000AF900895FC01538D448D252F30E0842FDE
:1001800090E0821B930B541710F0CF9608950197BF
:100190000895FC01918D828D981761F0A28DAE0FAC
:1001A000BF2FB11D5D968C91928D9F5F9F73928F33
:1001B00090E008958FEF9FEF0895FC01918D828D5F
:1001C000981731F0828DE80FF11D858D90E008952C
:1001D0008FEF9FEF0895FC01918D228D892F90E084
:1001E000805C9F4F821B91098F739927089581E747
:1001F00092E00E94EB0021E0892B09F420E0822F9D
:10020000089580E090E0892B29F00E94F700811189
:100210000C9400000895FC01A48DA80FB92FB11D06
:10022000A35ABF4F2C91848D90E001968F7399272C
:10023000848FA689B7892C93A089B1898C9183700A
:1002400080648C93938D848D981306C00288F38903
:10025000E02D80818F7D80830895EF92FF920F9330
:100260001F93CF93DF93EC0181E0888F9B8D8C8D62
:1002700098131AC0E889F989808185FF15C09FB756
:10028000F894EE89FF896083E889F9898081837019
:10029000806480839FBF81E090E0DF91CF911F91C8
:1002A0000F91FF90EF900895F62E0B8D10E00F5FE9
:1002B0001F4F0F731127E02E8C8D8E110CC00FB6BF
:1002C00007FCFACFE889F989808185FFF5CFCE0157
:1002D0000E940B01F1CFEB8DEC0FFD2FF11DE35AC6
:1002E000FF4FF0829FB7F8940B8FEA89FB898081DA
:1002F0008062CFCFCF93DF93EC01888D8823B9F054
:10030000AA89BB89E889F9898C9185FD03C0808120
:1003100086FD0DC00FB607FCF7CF8C9185FFF2CF9D
:10032000808185FFEDCFCE010E940B01E9CFDF91E7
:10033000CF91089590E0FC01EE58FF4F2491FC010D
:10034000E255FF4F3491FC01E656FF4FE491EE2356
:10035000C9F0222339F0233001F1A8F4213019F13A
:10036000223029F1F0E0EE0FFF1FE057FF4FA5917B
:10037000B4918FB7F894EC91611126C030953E236B
:100380003C938FBF08952730A9F02830C9F024305E
:1003900049F7809180008F7D03C0809180008F7726
:1003A00080938000DFCF84B58F7784BDDBCF84B5A9
:1003B0008F7DFBCF8091B0008F778093B000D2CF3C
:1003C0008091B0008F7DF9CF3E2BDACFCF93DF93B2
:1003D00090E0FC01E255FF4F249186569F4FFC01AF
:1003E00084918823D1F090E0880F991FFC01E8598F
:1003F000FF4FA591B491FC01E057FF4FC591D491F7
:1004000061110EC09FB7F8948C91E22FE0958E2376
:100410008C932881E223E8839FBFDF91CF910895D9
:100420008FB7F894EC91E22BEC938FBFF6CF1F932C
:10043000CF93DF93182FEB0161E00E94E601209734
:1004400039F460E0812FDF91CF911F910C949A01D4
:10045000CF3FD10511F461E0F5CFE12FF0E0EE5888
:10046000FF4FE491E33031F140F4E130B1F0E2309C
:10047000E1F0C038D1057CF7E4CFE73029F1E8306E
:1004800059F1E430B1F78091800080628093800060
:10049000D0938B00C0938A0004C084B5806884BD6B
:1004A000C7BDDF91CF911F91089584B5806284BD4F
:1004B000C8BDF7CF80918000806880938000D09382
:1004C0008900C0938800EDCF8091B0008068809350
:1004D000B000C093B300E5CF8091B00080628093FC
:1004E000B000C093B400DDCF8E3008F08E50209164
:1004F000000190E4299F900111248770822B809342
:100500007C0080917A00806480937A0080917A00E8
:1005100086FDFCCF809178009091790008953FB7D7
:10052000F8948091590290915A02A0915B02B09187
:100530005C0226B5A89B05C02F3F19F00196A11DAE
:10054000B11D3FBFBA2FA92F982F8827BC01CD011D
:10055000620F711D811D911D42E0660F771F881F7C
:10056000991F4A95D1F708958F929F92AF92BF92AB
:10057000CF92DF92EF92FF924B015C010E948F02BB
:100580006B017C010E948F026C197D098E099F0905
:10059000683E734081059105A8F321E0821A910815
:1005A000A108B10888EEC80E83E0D81EE11CF11C3A
:1005B00081149104A104B10429F7FF90EF90DF901A
:1005C000CF90BF90AF909F908F90089520915F0241
:1005D000309160022817390771F490915D02809183
:1005E0005E02981741F0E0915D02F0E0EC5EFD4F95
:1005F000808190E008958FEF9FEF08950895EF9226
:10060000FF920F931F93CF93DF93DC015C96ED90E5
:10061000FC905D97E114F10479F481E090E0139689
:100620009C938E93129790E080E0DF91CF911F9181
:100630000F91FF90EF9008955196ED91FC91529794
:1006400050968C915097982F90950FB75E962C915D
:100650005E97122F127021FD6095F894208111236E
:1006600019F1282B2083E7012197F1F728E0462F85
:1006700050E0308160FF1AC0382B3083E7012197AA
:10068000F1F7BA0175956795215089F7112381F02B
:100690008081892380830FBF5C968D919C91019707
:1006A000F1F781E090E0C1CF2923DCCF3923E5CFFA
:1006B0009081892BEFCF20915F0230916002281743
:1006C000390771F480915E0220915D0290E0805CB8
:1006D0009F4F821B910960E470E00E94CC0F089547
:1006E00090E080E0089520915F0230916002281729
:1006F0003907B9F490915D0280915E02981789F0F4
:10070000E0915D02F0E0EC5EFD4F808120915D02A2
:1007100030E02F5F3F4F2F73332720935D0290E02F
:1007200008958FEF9FEF0895089590E080E0089579
:10073000CF93DF93EC0160E08E810E949A0161E02B
:100740008E810E949A0160E08E810E949A018BE85E
:1007500091E00197F1F7DF91CF910895CF92DF9269
:10076000EF92FF920F931F93CF93DF936C017C0165
:1007700087E0E80EF11CD0E0C0E0062F10E0B801E1
:100780000C2E02C0759567950A94E2F76170F70127
:1007900081917F010E949A012196C430D10579F799
:1007A000C601DF91CF911F910F91FF90EF90DF90E5
:1007B000CF900C949803CF92DF92EF92FF920F9319
:1007C0001F93CF93DF93EC01F62E642F8C810E9450
:1007D0009A018D818F3F19F060E00E949A010F2DE0
:1007E00010E08F8584FF25C06E0187E0C80ED11C04
:1007F000F12CE12CB8010E2C02C0759567950A9476
:10080000E2F76170F60181916F010E949A01FFEF9A
:10081000EF1AFF0A88E0E816F10461F7CE01DF91D4
:10082000CF911F910F91FF90EF90DF90CF900C949C
:100830009803B80184E0759567958A95E1F7CE0134
:100840000E94AE036F2DCE01DF91CF911F910F91CA
:10085000FF90EF90DF90CF900C94AE0340E0682FB4
:1008600084E193E00C94DB03CF93DF93613029F0B4
:100870009091230398609093230360932703109231
:10088000280390E49093290380932A03805C80934B
:100890002B0361E0809118030E94E6018091190307
:1008A0008F3F19F061E00E94E60161E080911A0338
:1008B0000E94E601C4E1D3E09E01245133408091BF
:1008C000230384FD0BC084E090E0219628173907AC
:1008D00044F461E08E810E94E601EECF88E090E072
:1008E000F4CF8BE39DE00197F1F760E0809118036E
:1008F0000E949A0160E080911A030E949A018091FF
:1009000019038F3F19F060E00E949A018091230340
:1009100084FD39C063E084E193E00E94AE03CBE440
:10092000D6E4CE010197F1F763E084E193E00E9401
:10093000AE032197F1F763E084E193E00E94AE03F8
:1009400083E592E00197F1F762E084E193E00E9491
:10095000AE038091230380620E942E0484E0809382
:1009600024038CE00E942E0481E00E942E048BE37D
:100970009FE10197F1F782E08093250386E0DF9104
:10098000CF910C942E0480620E942E048BE496E496
:100990000197F1F78091230380620E942E0483E582
:1009A00092E00197F1F78091230380620E942E0468
:1009B000D0CF90912703891710F08FEF890FE82F80
:1009C000F0E0EC5EFC4F848980680C942E0441E0DA
:1009D0000E94DB0381E090E00895FB01019000207C
:1009E000E9F73197AF01461B570BDC01ED91FC9104
:1009F0000280F381E02D09948F929F92AF92BF9273
:100A00000F931F93CF93DF93CDB7DEB7A1970FB6A8
:100A1000F894DEBF0FBECDBF19A2423008F44AE001
:100A20008E010F5D1F4F842E912CB12CA12CA5019E
:100A300094010E947C0EE62FB901CA01EA3004F548
:100A4000E05DD801EE938D01232B242B252B79F724
:100A500090E080E0109729F0BD0184E193E00E94CE
:100A6000ED04A1960FB6F894DEBF0FBECDBFDF91A7
:100A7000CF911F910F91BF90AF909F908F9008954D
:100A8000E95CDFCFCF93DF93BC0181E792E00E9466
:100A9000ED04EC0167E371E081E792E00E94ED0470
:100AA0008C0F9D1FDF91CF9108954F925F926F92AF
:100AB0007F928F929F92AF92BF92CF92DF92EF92EE
:100AC000FF920F931F93CF936B017C01742EAC01A7
:100AD0009B010E94C70F6AE371E0811126C04601A5
:100AE0005701E894B7F82FEF3FEF4FE75FE7C501F5
:100AF000B4010E94C70F81110CC02FEF3FEF4FE7E9
:100B00005FE7C501B4010E94F70C6EE371E01816AF
:100B100064F02FEF3FEF4FE75FE4C701B6010E949B
:100B2000C20F1816ACF462E471E084E193E0CF9157
:100B30001F910F91FF90EF90DF90CF90BF90AF90FB
:100B40009F908F907F906F905F904F900C94ED04EA
:100B50002FEF3FEF4FE75FECC701B6010E94F70CA4
:100B600087FDE1CF20E030E0A901C701B6010E9476
:100B7000F70C10E000E087FF0CC041E06DE284E17B
:100B800093E00E94DB03F7FAF094F7F8F09401E0A9
:100B900010E0C0E060E070E080E09FE37C1641F090
:100BA00020E030E040E251E40E941A0FCF5FF6CF20
:100BB000A70196010E94AE0E4B015C010E94930FAB
:100BC0002B013C014AE00E94FC04080F191FCC23B2
:100BD000C9F1C301B2010E94FC0C9B01AC01C5012B
:100BE000B4010E94AD0E4B015C0141E06EE284E174
:100BF00093E00E94DB030F5F1F4FC15018F120E00C
:100C000030E040E251E4C501B4010E945D0D2B01CA
:100C10003C010E94930F4B01B12CA12C4AE0C5016D
:100C2000B4010E94FC04080F191FC501B4010E9401
:100C3000FC0C9B01AC01C301B2010E94AD0E4B0143
:100C40005C01DBCFC801CF911F910F91FF90EF9016
:100C5000DF90CF90BF90AF909F908F907F906F90DC
:100C60005F904F9008950C94ED041F920F920FB671
:100C70000F9211242F933F934F935F936F937F9322
:100C80008F939F93AF93BF93EF93FF9381E792E08E
:100C90000E940B01FF91EF91BF91AF919F918F91B6
:100CA0007F916F915F914F913F912F910F900FBE68
:100CB0000F901F9018951F920F920FB60F9211244C
:100CC0002F938F939F93EF93FF93E0918102F09185
:100CD00082028081E0918702F091880282FD1BC030
:100CE000908180918A028F5F8F7320918B0282178F
:100CF00041F0E0918A02F0E0EF58FD4F958F80932C
:100D00008A02FF91EF919F918F912F910F900FBECB
:100D10000F901F9018958081F4CF1F920F920FB6FD
:100D20000F9211242F933F938F939F93AF93BF9371
:100D30008091550290915602A0915702B0915802AD
:100D40003091540223E0230F2D3758F50196A11D51
:100D5000B11D209354028093550290935602A093A4
:100D60005702B09358028091590290915A02A09173
:100D70005B02B0915C020196A11DB11D80935902E6
:100D800090935A02A0935B02B0935C02BF91AF9123
:100D90009F918F913F912F910F900FBE0F901F90B9
:100DA000189526E8230F0296A11DB11DD2CF1F92E0
:100DB0000F920FB60F9211242F933F934F935F938F
:100DC0006F937F938F939F93AF93BF93EF93FF9313
:100DD000E0915F02F0916002309749F0A685B785F7
:100DE0008585968D91FF14C09C918923A1F4FF9174
:100DF000EF91BF91AF919F918F917F916F915F9193
:100E00004F913F912F910F900FBE0F901F9018950B
:100E10009C91892361F7A389B4899C9185898095E8
:100E200089238C93868997890197F1F7608D718D5D
:100E3000A685B785558538E020E0CB010197F1F70D
:100E4000822F90E095958795282F4C91452309F0A6
:100E50002068315091F7868D81FD209580915E024A
:100E600090E001968F73992730915D02381799F0C1
:100E7000A0915E02B0E0AC5EBD4F2C9380935E0209
:100E8000828D938D0197F1F7A389B4898C9195890F
:100E9000892B8C93ACCF868D8160868FF1CF109299
:100EA00074021092730288EE93E0A0E0B0E08093A9
:100EB000750290937602A0937702B09378022BE0AC
:100EC00031E0309372022093710225EC30E03093D0
:100ED0007E0220937D0224EC30E030938002209348
:100EE0007F0220EC30E0309382022093810221ECDB
:100EF00030E0309384022093830222EC30E0309380
:100F000086022093850226EC30E0309388022093FD
:100F1000870210928A0210928B0210928C02109219
:100F20008D0210922F0310922E0380933003909322
:100F30003103A0933203B093330389E291E090939D
:100F40002D0380932C0310924303109242031092BE
:100F500045031092440310924703109246031092E7
:100F600049031092480360914A036E7F6D7F60933E
:100F70004A036695617081E0682788E00E949A01C3
:100F800061E088E00E94E601E6EBF0E0E491E093A6
:100F90003C03E2EAF0E0E491F0E0EE0FFF1FE057DF
:100FA000FF4F8591949190933E0380933D0360E0C1
:100FB00087E00E94E60180914A0381FD04C061E060
:100FC00087E00E949A0187E080933803E5EBF0E028
:100FD000E491E0933903E1EAF0E0E491F0E0EE0F10
:100FE000FF1FEA57FF4F2591349130933B03209325
:100FF0003A0310921703109216032DE131E030935B
:101000001503209314039CE0909318039FEF909393
:1010100019039BE090931A039AE090931B0380932B
:101020001C0386E080931D0385E080931E031092CD
:101030001F0310922003109221031092220310929A
:10104000230361E080E10E94340410920F031092A8
:101050000E031092110310921003109213031092BA
:10106000120361E070E090E080E00E941F110097A1
:10107000E1F090930F0380930E03109211031092EE
:1010800010032091120330911303232B11F4FC0160
:101090001082109213031092120369E371E08091A1
:1010A0000E0390910F030C94E51180910E03909123
:1010B0000F03009711F00E94961010920F031092E8
:1010C0000E03109213031092120310921103109248
:1010D00010030895CF93DF93CDB7DEB76E970FB6A9
:1010E000F894DEBF0FBECDBF789484B5826084BD16
:1010F00084B5816084BD85B5826085BD85B581601C
:1011000085BD80916E00816080936E001092810099
:101110008091810082608093810080918100816054
:101120008093810080918000816080938000809115
:10113000B10084608093B1008091B00081608093A1
:10114000B00080917A00846080937A0080917A0068
:10115000826080937A0080917A00816080937A0027
:1011600080917A00806880937A001092C10061E0DB
:1011700083E00E94E60161E084E00E94E60161E014
:101180008DE00E94E60161E089E00E94E60164E0F2
:1011900084E10E94340466E471E081E792E00E94F9
:1011A000330666E471E084E193E00E94330681E057
:1011B0000E94D90489E491E00E94420569E471E04B
:1011C00084E193E00E94330682E00E94D9046CE43B
:1011D00071E084E193E00E943306E0918102F09196
:1011E000820282E08083E0917D02F0917E02108293
:1011F000E0917F02F09180028FEC8083109289024F
:10120000E0918502F091860286E08083E09183027E
:10121000F0918402808180618083E0918302F0916B
:101220008402808188608083E0918302F09184024F
:10123000808180688083E0918302F09184028081C4
:101240008F7D8083109247031092460310924503CE
:101250001092440310924303109242038DE991E0EF
:10126000909349038093480390913803963108F096
:1012700047C02DEB30E030934303209342032BE92A
:1012800031E030934503209344032CE231E0309366
:101290004703209346032091680084E0983048F08B
:1012A00031E09E3008F430E081E001C0880F3A95CB
:1012B000EAF7822B809368002DE630E0983050F0FA
:1012C0002BE630E09E3030F02CE630E0963110F026
:1012D00030E020E03093400320933F03292F30E09B
:1012E000983008F008C381E001C0880F9A95EAF7AA
:1012F0008093410380914803909149030197F1F74E
:101300008091460390914703892B49F1E0915F0258
:10131000F091600283E0EC32F80709F1309739F080
:10132000A389B4899C918589809589238C93809128
:101330004A038E7F80934A0310925E0210925D02F0
:101340008CE293E09093600280935F02E0913F0310
:10135000F0914003808190914103892B808381E04B
:101360008093000161E083E00E94E60161E084E097
:101370000E94E60161E089E00E94E60161E08DE003
:101380000E94E60160E08EE00E94E60160E08FE0EE
:101390000E94E60160E080E10E94E60160E082E1F7
:1013A0000E94E6011E019FE1290E311C85E0E82E16
:1013B000F12C9CE3892E912CA12CB12C8E010B5E7B
:1013C0001F4F680180E10E947402F801819391939C
:1013D0008F0165E070E080E090E00E94B4020215A9
:1013E000130581F78D899E892F89388D820F931F70
:1013F000298D3A8D820F931F2B8D3C8D820F931F69
:101400002D8D3E8D820F931FB7010E94CC0F072EAA
:10141000000C880B990B0E94FE0C20E030E040EAA3
:1014200050E40E945D0D20E030E048EC52E40E9460
:101430005D0D20E030EC4FE754E40E941A0F0E944B
:101440008C0F7093700260936F0280E00E94D90449
:101450006FE471E084E193E00E94330660916F02D3
:1014600070917002072E000C880B990B41E00E94CE
:10147000FC0463E571E084E193E00E94330665E0DB
:1014800070E080E090E00E94B40280916F02909141
:10149000700288973CF560E084E00E949A01109207
:1014A0006E0210926D0260E083E00E949A0170E08B
:1014B00060E083E00E94170265E571E081E792E059
:1014C0000E94330665E070E080E090E00E94B40284
:1014D00089E591E00E94420564EF71E080E090E0D0
:1014E0000E94B40200916F0210917002083211053F
:1014F0000CF443C061E084E00E949A0161E089E05D
:101500000E949A01012E000C220B330BA9019801B5
:101510002852310941095109AFEDB0E00E943A0E5D
:10152000A50194010E941B0E29013A01F0E24F0E21
:10153000511C611C711C50926E0240926D0261E060
:1015400083E00E949A01B20183E00E9417026FE6D5
:1015500071E081E792E00E94330665E070E080E090
:1015600090E00E94B40283E791E00E94420564EF9C
:1015700071E080E090E00E94B40280E10E94740279
:101580008FE00E9474028E01055F1F4F38018FE0CB
:101590000E947402F801819391938F0165E070E0DD
:1015A00080E090E00E94B402C016D10681F78B85DE
:1015B0009C852D853E85820F931F2F853889820F4C
:1015C000931F29893A89820F931F2B893C89820FA7
:1015D000931FB7010E94CC0F072E000C880B990BAC
:1015E0000E94FE0C20E030E040EA50E40E945D0DD5
:1015F00020E030E040EA52E40E945D0D20E030EC53
:101600004FE754E40E941A0F6093690270936A02D4
:1016100080936B0290936C0283E00E94D90468E887
:1016200071E084E193E00E94330660916902709159
:101630006A0280916B0290916C0241E00E94550514
:101640006CE871E084E193E00E94330665E070E0AD
:1016500080E090E00E94B4028E010F5F1F4F8EE089
:101660000E947402F801819391938F0165E070E00C
:1016700080E090E00E94B4026016710681F78981D3
:101680009A812B813C81820F931F2D813E81820F95
:10169000931F2F813885820F931F29853A85820FEA
:1016A000931FB7010E94CC0F072E000C880B990BDB
:1016B0000E94FE0C20E030E040EA50E40E945D0D04
:1016C00020E030E048E352E40E945D0D20E030EC81
:1016D0004FE754E40E941A0F60936502709366020C
:1016E000809367029093680281E00E94D9046EE8BB
:1016F00071E084E193E00E9433066091650270918D
:101700006602809167029091680241E00E9455054F
:1017100062E971E084E193E00E94330665E070E0E5
:1017200080E090E00E94B40282E10E947402BC0159
:10173000990F880B990B0E94FE0C20E030E040EAE4
:1017400050E40E945D0D20E030E040E751E40E944B
:101750005D0D20E030EC4FE754E40E941A0F6093D7
:10176000610270936202809363029093640282E04C
:101770000E94D90465E971E084E193E00E94330698
:1017800060916102709162028091630290916402A3
:1017900041E00E94550562E971E084E193E00E9416
:1017A000330665E070E080E090E00E94B40269E9F1
:1017B00071E08CE293E00E94330665E070E080E027
:1017C00090E00E94B40264EA71E08CE293E00E942F
:1017D00033066AE070E080E090E00E94B40220E00E
:1017E00030E040E252E460916502709166028091BF
:1017F0006702909168020E94F70C87FF89C08DEB09
:1018000091E00E94420561E084E00E949A0161E05B
:1018100089E00E949A0165E070E080E090E00E941B
:10182000B40220E030E040EA51E46091610270913E
:10183000620280916302909164020E94F70C87FF1C
:101840007EC089ED91E00E94420561E084E00E9443
:101850009A0161E089E00E949A0164EF71E080E002
:1018600090E00E94B4024090690250906A02609039
:101870006B0270906C0220E030E04CE553E4C30151
:10188000B2010E94C20F18160CF06CC020E030E0CC
:101890004EEB53E4C301B2010E94F70C87FF62C014
:1018A00065E070E080E090E00E94B40285EF91E096
:1018B0000E94420565E070E080E090E00E94B40282
:1018C00061E08DE00E949A0160E089E00E949A0147
:1018D00065E070E080E090E00E94B40280E090E07B
:1018E000892B09F46BCD0E94F700882309F466CD9B
:1018F0000E94000063CD9E3040F42850310981E001
:1019000001C0880F2A95EAF7F3CC2E503109F7CFA2
:1019100060E084E00E949A0160E089E00E949A0100
:1019200065E070E080E090E00E94B4028AEC91E013
:101930000E94420564EF71E080E090E070CF60E0CB
:1019400084E00E949A0160E089E00E949A0165E0CB
:1019500070E080E090E00E94B40285EE91E00E9489
:1019600042057BCF60E08DE00E949A0161E089E052
:101970000E949A0165E070E080E090E00E94B4026D
:1019800083EF91E00E94420564EF71E080E090E017
:101990000E94B40284E092E00E94420564EF71E08C
:1019A00080E090E099CF80910E0390910F03009713
:1019B00011F00E94961089E291E090932D0380939C
:1019C0002C0380915F02909160028C52934071F4DD
:1019D000E0913F03F0914003908180914103809515
:1019E000892380831092600210925F0208950E9402
:1019F000390D08F481E00895E89409C097FB3EF49E
:101A000090958095709561957F4F8F4F9F4F99234B
:101A1000A9F0F92F96E9BB279395F69587957795C9
:101A20006795B795F111F8CFFAF4BB0F11F460FF89
:101A30001BC06F5F7F4F8F4F9F4F16C0882311F0E1
:101A400096E911C0772321F09EE8872F762F05C0F5
:101A5000662371F096E8862F70E060E02AF09A9590
:101A6000660F771F881FDAF7880F9695879597F985
:101A70000895990F0008550FAA0BE0E8FEEF16161F
:101A80001706E807F907C0F012161306E407F50772
:101A900098F0621B730B840B950B39F40A2661F0E6
:101AA000232B242B252B21F408950A2609F4A14089
:101AB000A6958FEF811D811D08950E94700D0C94D5
:101AC000E10D0E94D30D38F00E94DA0D20F095232D
:101AD00011F00C94CA0D0C94D00D11240C94150E19
:101AE0000E94F20D70F3959FC1F3950F50E0551FC2
:101AF000629FF001729FBB27F00DB11D639FAA2763
:101B0000F00DB11DAA1F649F6627B00DA11D661FB1
:101B1000829F2227B00DA11D621F739FB00DA11DD2
:101B2000621F839FA00D611D221F749F3327A00D8C
:101B3000611D231F849F600D211D822F762F6A2F28
:101B400011249F5750409AF0F1F088234AF0EE0F8D
:101B5000FF1FBB1F661F771F881F91505040A9F7BA
:101B60009E3F510580F00C94CA0D0C94150E5F3FFA
:101B7000E4F3983ED4F3869577956795B795F795F6
:101B8000E7959F5FC1F7FE2B880F911D969587956E
:101B900097F9089597F99F6780E870E060E00895ED
:101BA0009FEF80EC089500240A9416161706180675
:101BB0000906089500240A94121613061406050651
:101BC0000895092E0394000C11F4882352F0BB0FE2
:101BD00040F4BF2B11F460FF04C06F5F7F4F8F4F45
:101BE0009F4F089557FD9058440F551F59F05F3F80
:101BF00071F04795880F97FB991F61F09F3F79F02F
:101C000087950895121613061406551FF2CF4695B0
:101C1000F1DF08C0161617061806991FF1CF869532
:101C20007105610508940895E894BB276627772716
:101C3000CB0197F90895052E97FB1EF400940E949E
:101C4000320E57FD07D00E947C0E07FC03D04EF4E5
:101C50000C94320E50954095309521953F4F4F4F43
:101C60005F4F089590958095709561957F4F8F4F48
:101C70009F4F08950E949E0EA59F900DB49F900DBA
:101C8000A49F800D911D112408952F923F924F9291
:101C90005F926F927F928F929F92AF92BF92CF92FC
:101CA000DF92EF92FF920F931F93CF93DF93CDB705
:101CB000DEB7CA1BDB0B0FB6F894DEBF0FBECDBF7D
:101CC00009942A88398848885F846E847D848C844E
:101CD0009B84AA84B984C884DF80EE80FD800C8157
:101CE0001B81AA81B981CE0FD11D0FB6F894DEBF3A
:101CF0000FBECDBFED010895A1E21A2EAA1BBB1B9A
:101D0000FD010DC0AA1FBB1FEE1FFF1FA217B307C7
:101D1000E407F50720F0A21BB30BE40BF50B661FDD
:101D2000771F881F991F1A9469F7609570958095A1
:101D300090959B01AC01BD01CF010895A29FB00118
:101D4000B39FC001A39F700D811D1124911DB29FEF
:101D5000700D811D1124911D08955058BB27AA278D
:101D60000E94C50E0C94E10D0E94D30D38F00E9424
:101D7000DA0D20F039F49F3F19F426F40C94D00DBD
:101D80000EF4E095E7FB0C94CA0DE92F0E94F20DCA
:101D900058F3BA17620773078407950720F079F4A0
:101DA000A6F50C94140E0EF4E0950B2EBA2FA02D70
:101DB0000B01B90190010C01CA01A0011124FF27F8
:101DC000591B99F0593F50F4503E68F11A16F040F3
:101DD000A22F232F342F4427585FF3CF46953795F2
:101DE0002795A795F0405395C9F77EF41F16BA0BB7
:101DF000620B730B840BBAF09150A1F0FF0FBB1F65
:101E0000661F771F881FC2F70EC0BA0F621F731FAD
:101E1000841F48F4879577956795B795F7959E3F0A
:101E200008F0B0CF9395880F08F09927EE0F97959B
:101E3000879508950E942E0F0C94E10D0E94DA0DF3
:101E400058F00E94D30D40F029F45F3F29F00C9424
:101E5000CA0D51110C94150E0C94D00D0E94F20D68
:101E600068F39923B1F3552391F3951B550BBB27C9
:101E7000AA2762177307840738F09F5F5F4F220F0E
:101E8000331F441FAA1FA9F335D00E2E3AF0E0E805
:101E900032D091505040E695001CCAF72BD0FE2F4F
:101EA00029D0660F771F881FBB1F261737074807E3
:101EB000AB07B0E809F0BB0B802DBF01FF2793589B
:101EC0005F4F3AF09E3F510578F00C94CA0D0C9488
:101ED000150E5F3FE4F3983ED4F3869577956795AA
:101EE000B795F7959F5FC9F7880F911D96958795D0
:101EF00097F90895E1E0660F771F881FBB1F6217EF
:101F000073078407BA0720F0621B730B840BBA0BAC
:101F1000EE1F88F7E09508950E94930F6894B11121
:101F20000C94150E08950E94FA0D88F09F5798F0B2
:101F3000B92F9927B751B0F0E1F0660F771F881FCE
:101F4000991F1AF0BA95C9F714C0B13091F00E94E8
:101F5000140EB1E008950C94140E672F782F882783
:101F6000B85F39F0B93FCCF3869577956795B3950F
:101F7000D9F73EF490958095709561957F4F8F4F7E
:101F80009F4F08950E94390D08F48FEF08950E9425
:101F9000390D880B990B089597FB072E16F40094C2
:101FA00007D077FD09D00E94E00F07FC05D03EF472
:101FB000909581959F4F0895709561957F4F0895F5
:101FC000AA1BBB1B51E107C0AA1FBB1FA617B7075F
:101FD00010F0A61BB70B881F991F5A95A9F780957B
:101FE0009095BC01CD010895EE0FFF1F0590F4916F
:101FF000E02D09940F931F93CF93DF9382309105C7
:1020000010F482E090E0E0914D03F0914E0330E057
:1020100020E0B0E0A0E0309799F42115310509F4F3
:102020004AC0281B390B24303105D8F58A819B81A1
:102030006115710589F1FB0193838283FE0111C053
:10204000408151810281138148175907E0F04817F8
:10205000590799F4109761F012960C931297139602
:102060001C933296CF01DF91CF911F910F9108956C
:1020700000934D0310934E03F4CF2115310551F019
:102080004217530738F0A901DB019A01BD01DF01B6
:10209000F801C1CFEF01F9CF90934E0380934D0328
:1020A000CDCFFE01E20FF31F8193919322503109AE
:1020B00039832883D7CF20914B0330914C03232BB6
:1020C00041F4209103013091040130934C0320939B
:1020D0004B0320910101309102012115310541F49A
:1020E0002DB73EB74091050150910601241B350BD9
:1020F000E0914B03F0914C03E217F307A0F42E1B81
:102100003F0B2817390778F0AC014E5F5F4F24175B
:10211000350748F04E0F5F1F50934C0340934B031D
:10212000819391939FCFF0E0E0E09CCFCF93DF933A
:102130000097E9F0FC01329713821282A0914D03BF
:10214000B0914E03ED0130E020E01097A1F4208122
:102150003181820F931F20914B0330914C0328173C
:10216000390709F061C0F0934C03E0934B03DF9112
:10217000CF910895EA01CE17DF07E8F54A815B8128
:102180009E0141155105B1F7E901FB83EA834991AD
:102190005991C40FD51FEC17FD0761F4808191811F
:1021A0000296840F951FE901998388838281938128
:1021B0009B838A83F0E0E0E012968D919C911397C7
:1021C0000097B9F52D913C911197CD010296820FA0
:1021D000931F20914B0330914C032817390739F690
:1021E000309751F510924E0310924D03B0934C036B
:1021F000A0934B03BCCFD383C28340815181840F12
:10220000951FC817D90761F44E5F5F4F8881998188
:10221000480F591F518340838A819B819383828316
:102220002115310509F0B0CFF0934E03E0934D0333
:102230009ECFFD01DC01C0CF13821282D7CFB0E068
:10224000A0E0E5E2F1E10C94470E8C01009751F417
:10225000CB010E94FA0F8C01C801CDB7DEB7E0E1D7
:102260000C94630EFC01E60FF71F9C01225031090C
:10227000E217F30708F49DC0D901CD91DC911197C5
:10228000C617D70798F0C530D10530F3CE010497B3
:102290008617970708F3C61BD70B2297C193D193D4
:1022A0006D937C93CF010E949610D6CF5B01AC1A40
:1022B000BD0A4C018C0E9D1EA0914D03B0914E03A2
:1022C000512C412CF12CE12C109731F580914B03CE
:1022D00090914C038815990509F05CC04616570685
:1022E00008F058C08091010190910201009741F4DB
:1022F0008DB79EB74091050150910601841B950B47
:10230000E817F90708F055C0F0934C03E0934B032E
:10231000F90171836083A0CF8D919C9111971296E2
:102320006C90129713967C901397A815B90559F5E0
:102330006C0142E0C40ED11CCA14DB0420F1AC01D4
:102340004A195B09DA011296159780F0628273824E
:1023500051834083D9016D937C93E114F10471F0B2
:10236000D7011396FC93EE93129776CF22968C0F9B
:102370009D1FF90191838083F301EFCFF0934E030A
:10238000E0934D0369CF4816590608F42C017D01EE
:10239000D3019ACFCB010E94FA0F7C01009749F03C
:1023A000AE01B8010E94DC11C8010E94961087019D
:1023B00053CF10E000E050CFFB01DC0102C00190E0
:1023C0000D9241505040D8F70895FB01DC01019077
:1023D0000D920020E1F7089510E0C2E6D0E004C0BD
:1023E000FE010E94F40F2196C336D107C9F7F89475
:0223F000FFCF1D
:1023F2000100004F038000000000002D018D00BA93
:10240200007A01EB00C900DD0000000000E7048D46
:10241200009503940300000000FF028D009503FE67
:10242200025B037303E6020D0A006E616E00696EC1
:1024320066006F766600543D00463D004F3D0054F5
:102442003D20004300202D200054454D504552416F
:1024520054555245204953204E4F524D414C002075
:102462002C200054454D5045524154555245204967
:102472005320484947482000563D20005600463D1B
:102482002000636D004F3D200041542B434D4746D1
:102492003D310D0041542B434D47533D222B3235E4
:1024A20031393737363635383430220D0046554506
:1024B2004C204953204C4F5720004655454C20494B
:1024C20053204E4F524D414C004F494C204953200E
:1024D2004C4F5720004F494C204953204E4F524DEC
:1024E200414C00554E4E4F524D414C20564F4C548C
:1024F200414745004641554C5420495320484150DC
:0425020050454E00F2
:00000001FF
