:100000000C9463000C948B000C948B000C94B3063E
:100010000C94B3060C94B3060C948B000C948B00D8
:100020000C948B000C948B000C948B000C948B0024
:100030000C948B000C948B000C948B000C948B0014
:100040000C9469060C948B000C9437060C941106E2
:100050000C948B000C948B000C948B000C948B00F4
:100060000C948B000C948B000000000024002700EF
:100070002A0000000008000201000003040700003D
:1000800000000000000000000000230026002900FE
:1000900000000000250028002B00040404040404D0
:1000A0000404020202020202030303030303010227
:1000B00004081020408001020408102001020408F6
:1000C00010207007060D11241FBECFEFD8E0DEBF51
:1000D000CDBF23E0A0E1B2E001C01D92AD34B20774
:1000E000E1F712E0A0E0B1E0E6EEF3E202C0059035
:1000F0000D92A031B107D9F710E0C2E6D0E004C0FC
:100100002197FE010E94EE0FC136D107C9F70E9468
:100110008A080C94E6110C940000DC01ED91FC912E
:100120000190F081E02D0994AF92BF92CF92DF92BF
:10013000EF92FF920F931F93CF93DF936C017B019C
:100140008B01040F151FEB015E01AE18BF08C0172D
:10015000D10759F06991D601ED91FC910190F081A0
:10016000E02DC6010995892B79F7C501DF91CF9163
:100170001F910F91FF90EF90DF90CF90BF90AF90C5
:100180000895FC01538D448D252F30E0842F90E09D
:10019000821B930B541710F0CF9608950197089582
:1001A000FC01918D828D981761F0A28DAE0FBF2F4B
:1001B000B11D5D968C91928D9F5F9F73928F90E0A1
:1001C00008958FEF9FEF0895FC01918D828D981710
:1001D00031F0828DE80FF11D858D90E008958FEF4D
:1001E0009FEF0895FC01918D228D892F90E0805C16
:1001F0009F4F821B91098F73992708958FE692E094
:100200000E94F20021E0892B09F420E0822F08955A
:1002100080E090E0892B29F00E94FE0081110C946F
:1002200000000895FC01A48DA80FB92FB11DA35A99
:10023000BF4F2C91848D90E001968F739927848F06
:10024000A689B7892C93A089B1898C918370806429
:100250008C93938D848D981306C00288F389E02DCA
:1002600080818F7D80830895EF92FF920F931F937B
:10027000CF93DF93EC0181E0888F9B8D8C8D981359
:100280001AC0E889F989808185FF15C09FB7F89465
:10029000EE89FF896083E889F989808183708064B1
:1002A00080839FBF81E090E0DF91CF911F910F91FC
:1002B000FF90EF900895F62E0B8D10E00F5F1F4F0B
:1002C0000F731127E02E8C8D8E110CC00FB607FC1A
:1002D000FACFE889F989808185FFF5CFCE010E94A8
:1002E0001201F1CFEB8DEC0FFD2FF11DE35AFF4F03
:1002F000F0829FB7F8940B8FEA89FB898081806236
:10030000CFCFCF93DF93EC01888D8823B9F0AA89F2
:10031000BB89E889F9898C9185FD03C0808186FDC0
:100320000DC00FB607FCF7CF8C9185FFF2CF80810F
:1003300085FFEDCFCE010E941201E9CFDF91CF9171
:10034000089590E0FC01EE58FF4F2491FC01E25526
:10035000FF4F3491FC01E656FF4FE491EE23C9F0C4
:10036000222339F0233001F1A8F4213019F1223091
:1003700029F1F0E0EE0FFF1FE057FF4FA591B49178
:100380008FB7F894EC91611126C030953E233C93D1
:100390008FBF08952730A9F02830C9F0243049F7DD
:1003A000809180008F7D03C0809180008F77809343
:1003B0008000DFCF84B58F7784BDDBCF84B58F7DA0
:1003C000FBCF8091B0008F778093B000D2CF809127
:1003D000B0008F7DF9CF3E2BDACFCF93DF9390E043
:1003E000FC01E255FF4F249186569F4FFC018491FA
:1003F0008823D1F090E0880F991FFC01E859FF4F46
:10040000A591B491FC01E057FF4FC591D4916111C2
:100410000EC09FB7F8948C91E22FE0958E238C93B9
:100420002881E223E8839FBFDF91CF9108958FB7A2
:10043000F894EC91E22BEC938FBFF6CF8E3008F05E
:100440008E502091000190E4299F90011124877023
:10045000822B80937C0080917A00806480937A0064
:1004600080917A0086FDFCCF809178009091790090
:1004700008953FB7F8948091550290915602A0914B
:100480005702B091580226B5A89B05C02F3F19F01E
:100490000196A11DB11D3FBFBA2FA92F982F882704
:1004A000BC01CD01620F711D811D911D42E0660FDF
:1004B000771F881F991F4A95D1F708958F929F92B1
:1004C000AF92BF92CF92DF92EF92FF924B015C010D
:1004D0000E9439026B017C010E9439026C197D096E
:1004E0008E099F09683E734081059105A8F321E0BC
:1004F000821A9108A108B10888EEC80E83E0D81EC0
:10050000E11CF11C81149104A104B10429F7FF90AE
:10051000EF90DF90CF90BF90AF909F908F90089515
:1005200020915B0230915C022817390771F4909199
:10053000590280915A02981741F0E0915902F0E077
:10054000E05FFD4F808190E008958FEF9FEF089569
:100550000895EF92FF920F931F93CF93DF93DC01E7
:100560005C96ED90FC905D97E114F10479F481E0E4
:1005700090E013969C938E93129790E080E0DF9129
:10058000CF911F910F91FF90EF9008955196ED91AB
:10059000FC91529750968C915097982F90950FB749
:1005A0005E962C915E97122F127021FD6095F89443
:1005B0002081112319F1282B2083E7012197F1F7DE
:1005C00028E0462F50E0308160FF1AC0382B30837E
:1005D000E7012197F1F7BA0175956795215089F7E1
:1005E000112381F08081892380830FBF5C968D91D8
:1005F0009C910197F1F781E090E0C1CF2923DCCFF6
:100600003923E5CF9081892BEFCF20915B02309188
:100610005C022817390771F480915A02209159021F
:1006200090E0805C9F4F821B910960E470E00E9423
:10063000A40F089590E080E0089520915B0230912E
:100640005C0228173907B9F49091590280915A0237
:10065000981789F0E0915902F0E0E05FFD4F80814A
:100660002091590230E02F5F3F4F2F7333272093A3
:10067000590290E008958FEF9FEF0895089590E05C
:1006800080E00895CF93DF93EC0160E08E810E94BB
:10069000A10161E08E810E94A10160E08E810E9433
:1006A000A1018BE891E00197F1F7DF91CF910895D7
:1006B000CF92DF92EF92FF920F931F93CF93DF932E
:1006C0006C017C0187E0E80EF11CD0E0C0E0062F51
:1006D00010E0B8010C2E02C0759567950A94E2F7F8
:1006E0006170F70181917F010E94A1012196C430C0
:1006F000D10579F7C601DF91CF911F910F91FF903E
:10070000EF90DF90CF900C944203CF92DF92EF9264
:10071000FF920F931F93CF93DF93EC01F62E642F7C
:100720008C810E94A1018D818F3F19F060E00E94B1
:10073000A1010F2D10E08F8584FF25C06E0187E099
:10074000C80ED11CF12CE12CB8010E2C02C07595FD
:1007500067950A94E2F76170F60181916F010E943A
:10076000A101FFEFEF1AFF0A88E0E816F10461F734
:10077000CE01DF91CF911F910F91FF90EF90DF900D
:10078000CF900C944203B80184E0759567958A95E3
:10079000E1F7CE010E9458036F2DCE01DF91CF917A
:1007A0001F910F91FF90EF90DF90CF900C94580322
:1007B00040E0682F82E193E00C948503CF93DF93B0
:1007C000823029F4909121039860909321038093C3
:1007D00025031092260380E48093270380E1809311
:1007E000280380E58093290361E0809116030E942D
:1007F000ED01809117038F3F19F061E00E94ED0138
:1008000061E0809118030E94ED01C2E1D3E09E01F6
:10081000225133408091210384FD0BC084E090E09D
:1008200021962817390744F461E08E810E94ED017A
:10083000EECF88E090E0F4CF8BE39DE00197F1F7F5
:1008400060E0809116030E94A10160E0809118038E
:100850000E94A101809117038F3F19F060E00E9470
:10086000A1018091210384FD39C063E082E193E01E
:100870000E945803CBE4D6E4CE010197F1F763E080
:1008800082E193E00E9458032197F1F763E082E14F
:1008900093E00E94580383E592E00197F1F762E04C
:1008A00082E193E00E9458038091210380620E94BC
:1008B000D80384E0809322038CE00E94D80381E077
:1008C0000E94D8038BE39FE10197F1F782E08093C8
:1008D000230386E0DF91CF910C94D80380620E94BD
:1008E000D8038BE496E40197F1F7809121038062AD
:1008F0000E94D80383E592E00197F1F780912103EC
:1009000080620E94D803D0CF90912503891710F000
:100910008FEF890FE82FF0E0EE5EFC4F848980684E
:100920000C94D80341E00E94850381E090E0089593
:10093000FB0101900020E9F73197AF01461B570BEF
:10094000DC01ED91FC910280F381E02D09948F92FE
:100950009F92AF92BF92EF92FF920F931F93CF930C
:10096000DF93CDB7DEB7A1970FB6F894DEBF0FBE09
:10097000CDBF7C01FA01CB0119A2223008F42AE094
:100980008E010F5D1F4F822E912CB12CA12CBF0127
:10099000A50194010E94B80FF901CA016A300CF553
:1009A000605DD8016E938D01232B242B252B79F7C5
:1009B00090E080E0109721F0BD01C7010E949804EB
:1009C000A1960FB6F894DEBF0FBECDBFDF91CF91D9
:1009D0001F910F91FF90EF90BF90AF909F908F90DD
:1009E0000895695CDECFCF93DF93BC018FE692E080
:1009F0000E949804EC0167E371E08FE692E00E94A8
:100A000098048C0F9D1FDF91CF9108952F923F92F4
:100A10004F925F926F927F928F929F92AF92BF920E
:100A2000CF92DF92EF92FF921F93CF93DF93EC016F
:100A30006A017B01722EAB019601CB01B6010E94C7
:100A40009F0F6AE371E0811126C046015701E894C7
:100A5000B7F82FEF3FEF4FE75FE7C501B4010E9402
:100A60009F0F81110CC02FEF3FEF4FE75FE7C501EC
:100A7000B4010E942A0D6EE371E0181664F02FEFA6
:100A80003FEF4FE75FE4C701B6010E949A0F1816C7
:100A9000B4F462E471E0CE01DF91CF911F91FF9039
:100AA000EF90DF90CF90BF90AF909F908F907F900E
:100AB0006F905F904F903F902F900C9498042FEF81
:100AC0003FEF4FE75FECC701B6010E942A0D87FD9B
:100AD000E0CF20E030E0A901C701B6010E942A0D55
:100AE000312C212C87FF09C06DE2CE010E948D00C0
:100AF0001C01F7FAF094F7F8F09410E060E070E071
:100B000080E09FE3711641F020E030E040E251E4E4
:100B10000E94F20E1F5FF6CFA70196010E94860E7B
:100B20002B013C010E946B0F4B015C012AE0BC01D0
:100B3000A401CE010E94A7047C01E20CF31C112346
:100B4000C1F1C501B4010E942F0D9B01AC01C3018D
:100B5000B2010E94850E4B015C016EE2CE010E9443
:100B60008D00E80EF91E115020F120E030E040E247
:100B700051E4C501B4010E94900D2B013C010E947B
:100B80006B0F4B01B12CA12C2AE0B501A401CE01C1
:100B90000E94A704E80EF91EC501B4010E942F0DA2
:100BA0009B01AC01C301B2010E94850E4B015C01A7
:100BB000DACFC701DF91CF911F91FF90EF90DF90C7
:100BC000CF90BF90AF909F908F907F906F905F90ED
:100BD0004F903F902F9008950C9498040F931F937B
:100BE000E6EBF0E06491E2EAF0E0E491F0E0EE0F91
:100BF000FF1FEA57FF4F8591949100E412E42FE024
:100C000030E0462F0E942B07611571058105910583
:100C100029F06F5F7F4F8F4F9F4F9F701F910F91F4
:100C200008951F920F920FB60F9211242F933F93A6
:100C30004F935F936F937F938F939F93AF93BF93E4
:100C4000EF93FF938FE692E00E941201FF91EF91E4
:100C5000BF91AF919F918F917F916F915F914F91D4
:100C60003F912F910F900FBE0F901F9018951F92DC
:100C70000F920FB60F9211242F938F939F93EF93A0
:100C8000FF93E0917F02F09180028081E0918502E4
:100C9000F091860282FD1BC09081809188028F5F57
:100CA0008F7320918902821741F0E0918802F0E071
:100CB000E159FD4F958F80938802FF91EF919F91AD
:100CC0008F912F910F900FBE0F901F9018958081DC
:100CD000F4CF1F920F920FB60F9211242F933F93D0
:100CE0008F939F93AF93BF93809151029091520243
:100CF000A0915302B09154023091500223E0230F8F
:100D00002D3758F50196A11DB11D209350028093F7
:100D1000510290935202A0935302B09354028091D7
:100D2000550290915602A0915702B0915802019637
:100D3000A11DB11D8093550290935602A0935702B6
:100D4000B0935802BF91AF919F918F913F912F9196
:100D50000F900FBE0F901F90189526E8230F029654
:100D6000A11DB11DD2CF1F920F920FB60F92112469
:100D70002F933F934F935F936F937F938F939F93A3
:100D8000AF93BF93EF93FF93E0915B02F0915C020E
:100D9000309749F0A685B7858585968D91FF14C05B
:100DA0009C918923A1F4FF91EF91BF91AF919F9105
:100DB0008F917F916F915F914F913F912F910F9004
:100DC0000FBE0F901F9018959C91892361F7A389FE
:100DD000B4899C918589809589238C93868997898C
:100DE0000197F1F7608D718DA685B785558538E03F
:100DF00020E0CB010197F1F7822F90E09595879540
:100E0000282F4C91452309F02068315091F7868DA9
:100E100081FD209580915A0290E001968F73992769
:100E200030915902381799F0A0915A02B0E0A05FB2
:100E3000BD4F2C9380935A02828D938D0197F1F7C9
:100E4000A389B4898C919589892B8C93ACCF868D9D
:100E50008160868FF1CFCF92DF92EF92FF920F9356
:100E60001F93E82FF92F05C00150110921093109FD
:100E700061F1908196239417B9F305C001501109CF
:100E80002109310911F1908196239413F7CFC12CD8
:100E9000D12CE12CF12C0AC08FEFC81AD80AE80A2D
:100EA000F80A0C151D052E053F0579F08081862373
:100EB000841791F36C2D7D2D8E2D9F2D1F910F91F9
:100EC000FF90EF90DF90CF90089560E070E080E0B9
:100ED00090E01F910F91FF90EF90DF90CF900895D9
:100EE000109272021092710288EE93E0A0E0B0E0DE
:100EF0008093730290937402A0937502B09376026C
:100F00002BE031E03093700220936F0225EC30E04B
:100F100030937C0220937B0224EC30E030937E02FD
:100F200020937D0220EC30E03093800220937F02FA
:100F300021EC30E0309382022093810222EC30E0F9
:100F4000309384022093830226EC30E030938602B3
:100F500020938502109288021092890210928A02D0
:100F600010928B0210922D0310922C0380932E036B
:100F700090932F03A0933003B093310389E291E063
:100F800090932B0380932A03109241031092400305
:100F900010924303109242031092450310924403AF
:100FA0001092470310924603609148036E7F6D7F55
:100FB000609348036695617081E0682788E00E942D
:100FC000A10161E088E00E94ED01E6EBF0E0E49130
:100FD000E0933A03E2EAF0E0E491F0E0EE0FFF1F65
:100FE000E057FF4F8591949190933C0380933B038E
:100FF00060E087E00E94ED018091480381FD04C01C
:1010000061E087E00E94A10187E080933603E5EB71
:10101000F0E0E491E0933703E1EAF0E0E491F0E0FE
:10102000EE0FFF1FEA57FF4F25913491309339039C
:101030002093380310921503109214032DE131E030
:1010400030931303209312039CE0909316039FEFB9
:10105000909317039BE0909318039AE090931903E1
:1010600080931A0386E080931B0385E080931C0322
:1010700010921D0310921E0310921F031092200362
:101080001092210381E00E94DE0310920D03109262
:101090000C0310920F0310920E0310921103109282
:1010A000100361E070E090E080E00E941911009769
:1010B000E1F090930D0380930C0310920F031092B4
:1010C0000E032091100330911103232B11F4FC0126
:1010D0001082109211031092100369E371E0809165
:1010E0000C0390910D030C94DF1180910C039091EF
:1010F0000D03009711F00E94901010920D031092B2
:101100000C03109211031092100310920F0310920F
:101110000E030895789484B5826084BD84B581609F
:1011200084BD85B5826085BD85B5816085BD8091B2
:101130006E00816080936E0010928100809181002A
:101140008260809381008091810081608093810022
:10115000809180008160809380008091B1008460E4
:101160008093B1008091B00081608093B000809145
:101170007A00846080937A0080917A008260809304
:101180007A0080917A00816080937A0080917A0061
:10119000806880937A001092C10061E083E00E9431
:1011A000ED0161E084E00E94ED0161E08DE00E94CC
:1011B000ED0161E089E00E94ED0182E00E94DE0322
:1011C000E0917F02F091800282E08083E0917B02D7
:1011D000F0917C021082E0917D02F0917E028FEC12
:1011E000808310928702E0918302F091840286E06E
:1011F0008083E0918102F09182028081806180830E
:10120000E0918102F0918202808188608083E09188
:101210008102F0918202808180688083E091810266
:10122000F091820280818F7D80831092450310921D
:101230004403109243031092420310924103109210
:1012400040038DE991E0909347038093460390918A
:101250003603963108F047C02DEB30E03093410360
:10126000209340032BE931E0309343032093420362
:101270002CE231E030934503209344032091680031
:1012800084E0983048F031E09E3008F430E081E0AE
:1012900001C0880F3A95EAF7822B809368002DE60B
:1012A00030E0983050F02BE630E09E3030F02CE605
:1012B00030E0963110F030E020E030933E03209390
:1012C0003D03292F30E0983008F039C381E001C098
:1012D000880F9A95EAF780933F0380914603909197
:1012E00047030197F1F78091440390914503892BBF
:1012F00049F1E0915B02F0915C0283E0EA32F80789
:1013000009F1309739F0A389B4899C91858980953A
:1013100089238C93809148038E7F80934803109299
:101320005A02109259028AE293E090935C028093F1
:101330005B02E0913D03F0913E03808190913F0379
:10134000892B808381E08093000161E082E00E942C
:10135000ED0161E083E00E94ED0161E084E00E9424
:10136000ED0161E088E00E94ED0161E089E00E940A
:10137000ED0161E08DE00E94ED0160E08EE00E94F1
:10138000ED0160E08FE00E94ED0160E080E10E94ED
:10139000ED0160E082E10E94ED0161E082E00E94E7
:1013A000ED0160E088E00E94ED01CFE0D0E00BE3CA
:1013B0001FE180E0A82E80E0B82E61E082E00E946C
:1013C000A101CE010197F1F760E082E00E94A10146
:1013D000CE010197F1F70E94EE050E942F0D20E04B
:1013E00030E040E05FE30E94900D22EB3DE94FEAE0
:1013F0005EE30E94900D60936B0270936C02809389
:101400006D0290936E0266E471E08FE692E00E94B6
:10141000EC0540916B0250916C0260916D027091ED
:101420006E0222E08FE692E00E9406058EE491E0D3
:101430000E94F30464EF71E080E090E00E945E029D
:1014400081E00E94840461E571E082E193E00E9402
:10145000EC0540916B0250916C0260916D027091AD
:101460006E0221E082E193E00E9406056EE471E0E5
:1014700082E193E00E94EC0564EF71E080E090E08F
:101480000E945E0220E030E040E252E460916B0294
:1014900070916C0280916D0290916E020E949A0F81
:1014A00018160CF059C28AE591E00E94F30461E03D
:1014B00084E00E94A10161E089E00E94A10164EF43
:1014C00071E080E090E00E945E0261E082E00E94B4
:1014D000A101CE010197F1F760E082E00E94A10135
:1014E000CE010197F1F70E94EE050E942F0D20E03A
:1014F00030E040E05FE30E94900D22EB3DE94FEACF
:101500005EE30E94900D609367027093680280937F
:10151000690290936A0266E771E08FE692E00E94AA
:10152000EC054091670250916802609169027091E8
:101530006A0221E08FE692E00E9406058EE491E0C7
:101540000E94F30464EF71E080E090E00E945E028C
:1015500081E00E94840461E571E082E193E00E94F1
:10156000EC0540916B0250916C0260916D0270919C
:101570006E0221E082E193E00E9406056EE471E0D4
:1015800082E193E00E94EC0564EF71E080E090E07E
:101590000E945E0220E030E040E252E460916B0283
:1015A00070916C0280916D0290916E020E949A0F70
:1015B00018160CF0E4C18AE591E00E94F30461E0A2
:1015C00084E00E94A10161E089E00E94A10164EF32
:1015D00071E080E090E00E945E0280E10E941E02C5
:1015E000BC01990F880B990B0E94310D20E030E06F
:1015F0004AEF5EE30E94900D20E030E040E251E4CB
:101600000E94F20E0E94640F70936602609365025E
:101610006EE771E08FE692E00E94EC05C0906502F3
:10162000D09066020D2C000CEE08FF082AE0B701EE
:10163000A601F7FE0DC06DE28FE692E00E948D00DC
:1016400044275527BA014C195D096E097F092AE024
:101650008FE692E00E94A70463E871E08FE692E0D3
:101660000E94EC0567E371E08FE692E00E94980427
:1016700068EE73E080E090E00E945E0280E00E94ED
:10168000840465E871E082E193E00E94EC054091FA
:10169000650250916602052E000C660B770B21E067
:1016A00082E193E00E94A70463E871E082E193E0A5
:1016B0000E94EC0581E00E94D803C8010197F1F770
:1016C00065E070E080E090E00E945E02809165023B
:1016D0009091660289970CF465C189E891E00E94B7
:1016E000F30461E084E00E94A10161E089E00E94CE
:1016F000A10161E083E00E94A10164EF71E080E05C
:1017000090E00E945E028FE00E941E02BC01990FD1
:10171000880B990B0E94310D20E030E040EA50E444
:101720000E94900D20E030EC4FE754E40E94F20E4E
:1017300060936102709362028093630290936402EB
:1017400020E030E040E251E40E94900D9B01AC01AA
:101750000E94860E60935D0270935E0280935F022A
:101760009093600264EB71E08FE692E00E94EC05DA
:1017700040915D0250915E0260915F027091600243
:1017800022E08FE692E00E9406056AEB71E08FE6A8
:1017900092E00E94EC0567E371E08FE692E00E9420
:1017A000980468EE73E080E090E00E945E0280E0C2
:1017B0000E94840464EB71E082E193E00E94EC05F6
:1017C00040915D0250915E0260915F0270916002F3
:1017D00022E082E193E00E9406056AEB71E082E17B
:1017E00093E00E94EC0564EF71E080E090E00E94DD
:1017F0005E02C0906102D0906202E0906302F090BD
:10180000640220E030E040E752E4C701B6010E94E4
:101810009A0F18160CF0DDC020E030E048EC52E4DE
:10182000C701B6010E942A0D87FFD3C064EF71E0A3
:1018300080E090E00E945E028CEB91E00E94F30455
:1018400064EF71E080E090E00E945E0261E08DE074
:101850000E94A10164EF71E080E090E00E945E02CE
:101860008CEE91E00E94F30468EE73E080E090E07B
:101870000E945E0287EF91E00E94F30468EE73E03D
:1018800080E090E00E945E02809165029091660285
:10189000899724F089E891E00E94F30420E030E089
:1018A00040E252E460916B0270916C0280916D0293
:1018B00090916E020E949A0F1816ACF58AE591E09D
:1018C0000E94F304C0906102D0906202E090630233
:1018D000F090640220E030E04CE553E4C701B6012B
:1018E0000E949A0F1816FCF420E030E048EC53E414
:1018F000C701B6010E942A0D87FF15C08BEC91E04D
:101900000E94F30468EE73E080E090E00E945E02C3
:101910006AE18FE692E00E948D0067E371E08FE656
:1019200092E00E949804A114B10409F446CD0E94EB
:10193000FE00882309F441CD0E9400003ECD9E3078
:1019400040F42850310981E001C0880F2A95EAF758
:10195000C2CC2E503109F7CF60E084E00E94A10193
:1019600060E089E00E94A10164EF71E080E090E016
:101970000E945E0287E691E00E94F304A0CD60E041
:1019800084E00E94A10160E089E00E94A10164EF6F
:1019900071E080E090E00E945E0287E691E00E94A4
:1019A000F30415CE60E084E00E94A10160E089E0CC
:1019B0000E94A10165E070E080E090E00E945E027C
:1019C0008EE991E00E94F30465E070E080E090E031
:1019D00098CE60E08DE00E94A10161E089E00E9464
:1019E000A10164EF71E080E090E00E945E028BEC68
:1019F00091E00E94F30464EF71E080E090E00E94C7
:101A00005E028CED91E00E94F30424CF80910C03E0
:101A100090910D03009711F00E94901089E291E0DF
:101A200090932B0380932A0380915B0290915C0238
:101A30008A52934071F4E0913D03F0913E0390810E
:101A400080913F0380958923808310925C021092DD
:101A50005B0208950E946C0D08F481E00895E894FB
:101A600009C097FB3EF490958095709561957F4FE6
:101A70008F4F9F4F9923A9F0F92F96E9BB27939594
:101A8000F695879577956795B795F111F8CFFAF4A4
:101A9000BB0F11F460FF1BC06F5F7F4F8F4F9F4FD5
:101AA00016C0882311F096E911C0772321F09EE833
:101AB000872F762F05C0662371F096E8862F70E099
:101AC00060E02AF09A95660F771F881FDAF7880F73
:101AD0009695879597F90895990F0008550FAA0BC9
:101AE000E0E8FEEF16161706E807F907C0F0121631
:101AF0001306E407F50798F0621B730B840B950B34
:101B000039F40A2661F0232B242B252B21F4089588
:101B10000A2609F4A140A6958FEF811D811D089525
:101B20000E94A30D0C94140E0E94060E38F00E9421
:101B30000D0E20F0952311F00C94FD0D0C94030E66
:101B400011240C94480E0E94250E70F3959FC1F34A
:101B5000950F50E0551F629FF001729FBB27F00D5B
:101B6000B11D639FAA27F00DB11DAA1F649F6627B0
:101B7000B00DA11D661F829F2227B00DA11D621FFF
:101B8000739FB00DA11D621F839FA00D611D221FB9
:101B9000749F3327A00D611D231F849F600D211D9D
:101BA000822F762F6A2F11249F5750409AF0F1F020
:101BB00088234AF0EE0FFF1FBB1F661F771F881F89
:101BC00091505040A9F79E3F510580F00C94FD0DB7
:101BD0000C94480E5F3FE4F3983ED4F386957795D6
:101BE0006795B795F795E7959F5FC1F7FE2B880F2F
:101BF000911D9695879597F9089597F99F6780E8C5
:101C000070E060E008959FEF80EC089500240A944E
:101C10001616170618060906089500240A941216C7
:101C20001306140605060895092E0394000C11F4FA
:101C3000882352F0BB0F40F4BF2B11F460FF04C0A7
:101C40006F5F7F4F8F4F9F4F089557FD9058440F00
:101C5000551F59F05F3F71F04795880F97FB991F0B
:101C600061F09F3F79F087950895121613061406C8
:101C7000551FF2CF4695F1DF08C016161706180655
:101C8000991FF1CF86957105610508940895E89430
:101C9000BB2766277727CB0197F908952F923F92AC
:101CA0004F925F926F927F928F929F92AF92BF926C
:101CB000CF92DF92EF92FF920F931F93CF93DF9318
:101CC000CDB7DEB7CA1BDB0B0FB6F894DEBF0FBE75
:101CD000CDBF09942A88398848885F846E847D84C2
:101CE0008C849B84AA84B984C884DF80EE80FD80C4
:101CF0000C811B81AA81B981CE0FD11D0FB6F8943A
:101D0000DEBF0FBECDBFED0108955058BB27AA27F7
:101D10000E949D0E0C94140E0E94060E38F00E9434
:101D20000D0E20F039F49F3F19F426F40C94030EA5
:101D30000EF4E095E7FB0C94FD0DE92F0E94250EB3
:101D400058F3BA17620773078407950720F079F4F0
:101D5000A6F50C94470E0EF4E0950B2EBA2FA02D8D
:101D60000B01B90190010C01CA01A0011124FF2748
:101D7000591B99F0593F50F4503E68F11A16F04043
:101D8000A22F232F342F4427585FF3CF4695379542
:101D90002795A795F0405395C9F77EF41F16BA0B07
:101DA000620B730B840BBAF09150A1F0FF0FBB1FB5
:101DB000661F771F881FC2F70EC0BA0F621F731FFE
:101DC000841F48F4879577956795B795F7959E3F5B
:101DD00008F0B0CF9395880F08F09927EE0F9795EC
:101DE000879508950E94060F0C94140E0E940D0E04
:101DF00058F00E94060E40F029F45F3F29F00C9441
:101E0000FD0D51110C94480E0C94030E0E94250EEA
:101E100068F39923B1F3552391F3951B550BBB2719
:101E2000AA2762177307840738F09F5F5F4F220F5E
:101E3000331F441FAA1FA9F335D00E2E3AF0E0E855
:101E400032D091505040E695001CCAF72BD0FE2F9F
:101E500029D0660F771F881FBB1F26173707480733
:101E6000AB07B0E809F0BB0B802DBF01FF279358EB
:101E70005F4F3AF09E3F510578F00C94FD0D0C94A5
:101E8000480E5F3FE4F3983ED4F3869577956795C7
:101E9000B795F7959F5FC9F7880F911D9695879520
:101EA00097F90895E1E0660F771F881FBB1F62173F
:101EB00073078407BA0720F0621B730B840BBA0BFD
:101EC000EE1F88F7E09508950E946B0F6894B1119A
:101ED0000C94480E08950E942D0E88F09F5798F09C
:101EE000B92F9927B751B0F0E1F0660F771F881F1F
:101EF000991F1AF0BA95C9F714C0B13091F00E9439
:101F0000470EB1E008950C94470E672F782F88276D
:101F1000B85F39F0B93FCCF3869577956795B3955F
:101F2000D9F73EF490958095709561957F4F8F4FCE
:101F30009F4F08950E946C0D08F48FEF08950E9442
:101F40006C0D880B990B089597FB072E16F40094DF
:101F500007D077FD09D00E94DA0F07FC05D03EF4C8
:101F6000909581959F4F0895709561957F4F089545
:101F7000A1E21A2EAA1BBB1BFD010DC0AA1FBB1F8D
:101F8000EE1FFF1FA217B307E407F50720F0A21BFF
:101F9000B30BE40BF50B661F771F881F991F1A946C
:101FA00069F760957095809590959B01AC01BD0196
:101FB000CF010895AA1BBB1B51E107C0AA1FBB1F7D
:101FC000A617B70710F0A61BB70B881F991F5A95C5
:101FD000A9F780959095BC01CD010895EE0FFF1FE4
:101FE0000590F491E02D09940F931F93CF93DF9305
:101FF0008230910510F482E090E0E0914B03F09183
:102000004C0330E020E0B0E0A0E0309799F42115D7
:10201000310509F44AC0281B390B24303105D8F5A5
:102020008A819B816115710589F1FB01938382830C
:10203000FE0111C040815181028113814817590767
:10204000E0F04817590799F4109761F012960C9335
:10205000129713961C933296CF01DF91CF911F9167
:102060000F91089500934B0310934C03F4CF211567
:10207000310551F04217530738F0A901DB019A01ED
:10208000BD01DF01F801C1CFEF01F9CF90934C03FF
:1020900080934B03CDCFFE01E20FF31F8193919309
:1020A0002250310939832883D7CF209149033091B9
:1020B0004A03232B41F42091030130910401309312
:1020C0004A03209349032091010130910201211517
:1020D000310541F42DB73EB74091050150910601FD
:1020E000241B350BE0914903F0914A03E217F307F3
:1020F000A0F42E1B3F0B2817390778F0AC014E5F78
:102100005F4F2417350748F04E0F5F1F50934A0367
:1021100040934903819391939FCFF0E0E0E09CCFFF
:10212000CF93DF930097E9F0FC013297138212827C
:10213000A0914B03B0914C03ED0130E020E01097EB
:10214000A1F420813181820F931F209149033091A6
:102150004A032817390709F061C0F0934A03E09356
:102160004903DF91CF910895EA01CE17DF07E8F523
:102170004A815B819E0141155105B1F7E901FB835D
:10218000EA8349915991C40FD51FEC17FD0761F4FB
:10219000808191810296840F951FE901998388833C
:1021A000828193819B838A83F0E0E0E012968D9197
:1021B0009C9113970097B9F52D913C911197CD0102
:1021C0000296820F931F2091490330914A032817EA
:1021D000390739F6309751F510924C0310924B03A2
:1021E000B0934A03A0934903BCCFD383C2834081F9
:1021F0005181840F951FC817D90761F44E5F5F4F57
:1022000088819981480F591F518340838A819B811E
:10221000938382832115310509F0B0CFF0934C03ED
:10222000E0934B039ECFFD01DC01C0CF13821282ED
:10223000D7CFB0E0A0E0EFE1F1E10C94500E8C01BB
:10224000009751F4CB010E94F40F8C01C801CDB767
:10225000DEB7E0E10C946C0EFC01E60FF71F9C0169
:1022600022503109E217F30708F49DC0D901CD913E
:10227000DC911197C617D70798F0C530D10530F318
:10228000CE0104978617970708F3C61BD70B229732
:10229000C193D1936D937C93CF010E949010D6CFC0
:1022A0005B01AC1ABD0A4C018C0E9D1EA0914B0324
:1022B000B0914C03512C412CF12CE12C109731F5AD
:1022C0008091490390914A038815990509F05CC0F3
:1022D0004616570608F058C08091010190910201FE
:1022E000009741F48DB79EB74091050150910601CA
:1022F000841B950BE817F90708F055C0F0934A03C3
:10230000E0934903F90171836083A0CF8D919C9183
:10231000119712966C90129713967C901397A815AC
:10232000B90559F56C0142E0C40ED11CCA14DB0496
:1023300020F1AC014A195B09DA011296159780F079
:102340006282738251834083D9016D937C93E1143F
:10235000F10471F0D7011396FC93EE93129776CFA8
:1023600022968C0F9D1FF90191838083F301EFCF9B
:10237000F0934C03E0934B0369CF4816590608F4D9
:102380002C017D01D3019ACFCB010E94F40F7C0177
:10239000009749F0AE01B8010E94D611C8010E9411
:1023A0009010870153CF10E000E050CFFB01DC011B
:1023B00002C001900D9241505040D8F70895FB01A2
:1023C000DC0101900D920020E1F7089510E0C2E6D3
:1023D000D0E004C0FE010E94EE0F2196C336D10763
:0623E000C9F7F894FFCFDD
:1023E6000100004D0380000000000034019400C18C
:1023F600008101F200D000E4000000000092049485
:10240600003F033E0300000000A90294003F03A81A
:102416000205031D0390020D0A006E616E00696ECF
:1024260066006F766600464C6576656C3D00636DAA
:1024360000464C6576656C3D20004655454C204966
:1024460053204C4F5720004655454C204953204EAB
:102456004F524D414C004F4C6576656C3D00542003
:102466003D20004300543D200054454D5045524107
:102476005455524520495320484947482000544561
:102486004D5045524154555245204953204E4F52C6
:102496004D414C00766F75743D0056004E6F726D5F
:1024A600616C20766F6C7461676500556E6E6F7235
:1024B6006D616C20766F6C74616765004641554CA2
:1024C600542049532048415050454E0041542B4317
:1024D6004D47463D310D0041542B434D47533D2258
:1024E6002B323531393737363635383430220D0010
:00000001FF
